{
  "_format": "hh-sol-artifact-1",
  "contractName": "MockV3Aggregator",
  "sourceName": "contracts/MockV3Aggregator.sol",
  "abi": [
    {
      "inputs": [
        {
          "internalType": "uint8",
          "name": "_decimals",
          "type": "uint8"
        },
        {
          "internalType": "int256",
          "name": "_initialAnswer",
          "type": "int256"
        }
      ],
      "stateMutability": "nonpayable",
      "type": "constructor"
    },
    {
      "inputs": [],
      "name": "decimals",
      "outputs": [
        {
          "internalType": "uint8",
          "name": "",
          "type": "uint8"
        }
      ],
      "stateMutability": "view",
      "type": "function"
    },
    {
      "inputs": [],
      "name": "description",
      "outputs": [
        {
          "internalType": "string",
          "name": "",
          "type": "string"
        }
      ],
      "stateMutability": "view",
      "type": "function"
    },
    {
      "inputs": [
        {
          "internalType": "uint80",
          "name": "",
          "type": "uint80"
        }
      ],
      "name": "getRoundData",
      "outputs": [
        {
          "internalType": "uint80",
          "name": "",
          "type": "uint80"
        },
        {
          "internalType": "int256",
          "name": "",
          "type": "int256"
        },
        {
          "internalType": "uint256",
          "name": "",
          "type": "uint256"
        },
        {
          "internalType": "uint256",
          "name": "",
          "type": "uint256"
        },
        {
          "internalType": "uint80",
          "name": "",
          "type": "uint80"
        }
      ],
      "stateMutability": "view",
      "type": "function"
    },
    {
      "inputs": [],
      "name": "latestRoundData",
      "outputs": [
        {
          "internalType": "uint80",
          "name": "roundId",
          "type": "uint80"
        },
        {
          "internalType": "int256",
          "name": "answer",
          "type": "int256"
        },
        {
          "internalType": "uint256",
          "name": "startedAt",
          "type": "uint256"
        },
        {
          "internalType": "uint256",
          "name": "updatedAt",
          "type": "uint256"
        },
        {
          "internalType": "uint80",
          "name": "answeredInRound",
          "type": "uint80"
        }
      ],
      "stateMutability": "view",
      "type": "function"
    },
    {
      "inputs": [],
      "name": "version",
      "outputs": [
        {
          "internalType": "uint256",
          "name": "",
          "type": "uint256"
        }
      ],
      "stateMutability": "view",
      "type": "function"
    }
  ],
  "bytecode": "0x6080604052600160035534801561001557600080fd5b5060405161071838038061071883398181016040528101906100379190610179565b81600160006101000a81548160ff021916908360ff160217905550806000819055506040518060400160405280600f81526020017f4d6f636b20507269636520466565640000000000000000000000000000000000815250600290805190602001906100a49291906100ac565b505050610264565b8280546100b8906101d0565b90600052602060002090601f0160209004810192826100da5760008555610121565b82601f106100f357805160ff1916838001178555610121565b82800160010185558215610121579182015b82811115610120578251825591602001919060010190610105565b5b50905061012e9190610132565b5090565b5b8082111561014b576000816000905550600101610133565b5090565b60008151905061015e81610236565b92915050565b6000815190506101738161024d565b92915050565b600080604083850312156101905761018f610231565b5b600061019e85828601610164565b92505060206101af8582860161014f565b9150509250929050565b6000819050919050565b600060ff82169050919050565b600060028204905060018216806101e857607f821691505b602082108114156101fc576101fb610202565b5b50919050565b7f4e487b7100000000000000000000000000000000000000000000000000000000600052602260045260246000fd5b600080fd5b61023f816101b9565b811461024a57600080fd5b50565b610256816101c3565b811461026157600080fd5b50565b6104a5806102736000396000f3fe608060405234801561001057600080fd5b50600436106100575760003560e01c8063313ce5671461005c57806354fd4d501461007a5780637284e416146100985780639a6fc8f5146100b6578063feaf968c146100ea575b600080fd5b61006461010c565b6040516100719190610340565b60405180910390f35b61008261011f565b60405161008f91906102d2565b60405180910390f35b6100a0610125565b6040516100ad91906102b0565b60405180910390f35b6100d060048036038101906100cb919061020e565b6101b3565b6040516100e19594939291906102ed565b60405180910390f35b6100f26101d7565b6040516101039594939291906102ed565b60405180910390f35b600160009054906101000a900460ff1681565b60035481565b60028054610132906103e1565b80601f016020809104026020016040519081016040528092919081815260200182805461015e906103e1565b80156101ab5780601f10610180576101008083540402835291602001916101ab565b820191906000526020600020905b81548152906001019060200180831161018e57829003601f168201915b505050505081565b60008060008060008060005460008060009450945094509450945091939590929450565b6000806000806000806000546000806000945094509450945094509091929394565b60008135905061020881610458565b92915050565b60006020828403121561022457610223610442565b5b6000610232848285016101f9565b91505092915050565b61024481610377565b82525050565b60006102558261035b565b61025f8185610366565b935061026f8185602086016103ae565b61027881610447565b840191505092915050565b61028c81610381565b82525050565b61029b81610398565b82525050565b6102aa8161038b565b82525050565b600060208201905081810360008301526102ca818461024a565b905092915050565b60006020820190506102e76000830184610283565b92915050565b600060a0820190506103026000830188610292565b61030f602083018761023b565b61031c6040830186610283565b6103296060830185610283565b6103366080830184610292565b9695505050505050565b600060208201905061035560008301846102a1565b92915050565b600081519050919050565b600082825260208201905092915050565b6000819050919050565b6000819050919050565b600060ff82169050919050565b600069ffffffffffffffffffff82169050919050565b60005b838110156103cc5780820151818401526020810190506103b1565b838111156103db576000848401525b50505050565b600060028204905060018216806103f957607f821691505b6020821081141561040d5761040c610413565b5b50919050565b7f4e487b7100000000000000000000000000000000000000000000000000000000600052602260045260246000fd5b600080fd5b6000601f19601f8301169050919050565b61046181610398565b811461046c57600080fd5b5056fea264697066735822122034aafc9793f556cefad0c17a34a18a7b81321720a5591c4685b0b26104f9d6e964736f6c63430008070033",
  "linkReferences": {},
  "deployedLinkReferences": {}
}